{
  "contractName": "FnxMineDebankView",
  "abi": [
    {
      "anonymous": false,
      "inputs": [
        {
          "indexed": true,
          "internalType": "address",
          "name": "previousOwner",
          "type": "address"
        },
        {
          "indexed": true,
          "internalType": "address",
          "name": "newOwner",
          "type": "address"
        }
      ],
      "name": "OwnershipTransferred",
      "type": "event"
    },
    {
      "constant": true,
      "inputs": [],
      "name": "cfnxToken",
      "outputs": [
        {
          "internalType": "address",
          "name": "",
          "type": "address"
        }
      ],
      "payable": false,
      "stateMutability": "view",
      "type": "function"
    },
    {
      "constant": true,
      "inputs": [],
      "name": "fixedMinePool",
      "outputs": [
        {
          "internalType": "address",
          "name": "",
          "type": "address"
        }
      ],
      "payable": false,
      "stateMutability": "view",
      "type": "function"
    },
    {
      "constant": true,
      "inputs": [],
      "name": "fnxColPool",
      "outputs": [
        {
          "internalType": "address",
          "name": "",
          "type": "address"
        }
      ],
      "payable": false,
      "stateMutability": "view",
      "type": "function"
    },
    {
      "constant": true,
      "inputs": [],
      "name": "fnxOracle",
      "outputs": [
        {
          "internalType": "address",
          "name": "",
          "type": "address"
        }
      ],
      "payable": false,
      "stateMutability": "view",
      "type": "function"
    },
    {
      "constant": true,
      "inputs": [],
      "name": "fnxToken",
      "outputs": [
        {
          "internalType": "address",
          "name": "",
          "type": "address"
        }
      ],
      "payable": false,
      "stateMutability": "view",
      "type": "function"
    },
    {
      "constant": true,
      "inputs": [],
      "name": "isOwner",
      "outputs": [
        {
          "internalType": "bool",
          "name": "",
          "type": "bool"
        }
      ],
      "payable": false,
      "stateMutability": "view",
      "type": "function"
    },
    {
      "constant": true,
      "inputs": [],
      "name": "owner",
      "outputs": [
        {
          "internalType": "address",
          "name": "",
          "type": "address"
        }
      ],
      "payable": false,
      "stateMutability": "view",
      "type": "function"
    },
    {
      "constant": false,
      "inputs": [],
      "name": "renounceOwnership",
      "outputs": [],
      "payable": false,
      "stateMutability": "nonpayable",
      "type": "function"
    },
    {
      "constant": true,
      "inputs": [],
      "name": "temp1",
      "outputs": [
        {
          "internalType": "address",
          "name": "",
          "type": "address"
        }
      ],
      "payable": false,
      "stateMutability": "view",
      "type": "function"
    },
    {
      "constant": true,
      "inputs": [],
      "name": "temp2",
      "outputs": [
        {
          "internalType": "address",
          "name": "",
          "type": "address"
        }
      ],
      "payable": false,
      "stateMutability": "view",
      "type": "function"
    },
    {
      "constant": true,
      "inputs": [],
      "name": "temp3",
      "outputs": [
        {
          "internalType": "address",
          "name": "",
          "type": "address"
        }
      ],
      "payable": false,
      "stateMutability": "view",
      "type": "function"
    },
    {
      "constant": false,
      "inputs": [
        {
          "internalType": "address",
          "name": "newOwner",
          "type": "address"
        }
      ],
      "name": "transferOwnership",
      "outputs": [],
      "payable": false,
      "stateMutability": "nonpayable",
      "type": "function"
    },
    {
      "constant": true,
      "inputs": [],
      "name": "usdcColPool",
      "outputs": [
        {
          "internalType": "address",
          "name": "",
          "type": "address"
        }
      ],
      "payable": false,
      "stateMutability": "view",
      "type": "function"
    },
    {
      "constant": true,
      "inputs": [],
      "name": "usdcToken",
      "outputs": [
        {
          "internalType": "address",
          "name": "",
          "type": "address"
        }
      ],
      "payable": false,
      "stateMutability": "view",
      "type": "function"
    },
    {
      "constant": true,
      "inputs": [],
      "name": "usdtToken",
      "outputs": [
        {
          "internalType": "address",
          "name": "",
          "type": "address"
        }
      ],
      "payable": false,
      "stateMutability": "view",
      "type": "function"
    },
    {
      "constant": true,
      "inputs": [
        {
          "internalType": "address",
          "name": "_user",
          "type": "address"
        }
      ],
      "name": "getMinedUnclaimedBalance",
      "outputs": [
        {
          "internalType": "uint256",
          "name": "",
          "type": "uint256"
        }
      ],
      "payable": false,
      "stateMutability": "view",
      "type": "function"
    },
    {
      "constant": true,
      "inputs": [
        {
          "internalType": "address",
          "name": "_user",
          "type": "address"
        }
      ],
      "name": "getConverterLockedBalance",
      "outputs": [
        {
          "internalType": "uint256",
          "name": "",
          "type": "uint256"
        }
      ],
      "payable": false,
      "stateMutability": "view",
      "type": "function"
    },
    {
      "constant": true,
      "inputs": [
        {
          "internalType": "address",
          "name": "_user",
          "type": "address"
        }
      ],
      "name": "getApy",
      "outputs": [
        {
          "internalType": "uint256",
          "name": "",
          "type": "uint256"
        }
      ],
      "payable": false,
      "stateMutability": "view",
      "type": "function"
    },
    {
      "constant": true,
      "inputs": [
        {
          "internalType": "address",
          "name": "_user",
          "type": "address"
        }
      ],
      "name": "getFnxPoolColValue",
      "outputs": [
        {
          "internalType": "uint256",
          "name": "",
          "type": "uint256"
        }
      ],
      "payable": false,
      "stateMutability": "view",
      "type": "function"
    },
    {
      "constant": true,
      "inputs": [
        {
          "internalType": "address",
          "name": "_user",
          "type": "address"
        }
      ],
      "name": "getUsdcPoolColValue",
      "outputs": [
        {
          "internalType": "uint256",
          "name": "",
          "type": "uint256"
        }
      ],
      "payable": false,
      "stateMutability": "view",
      "type": "function"
    },
    {
      "constant": true,
      "inputs": [
        {
          "internalType": "address",
          "name": "_user",
          "type": "address"
        },
        {
          "internalType": "address",
          "name": "_collateral",
          "type": "address"
        },
        {
          "internalType": "address",
          "name": "_pool",
          "type": "address"
        }
      ],
      "name": "getUserInputCollateral",
      "outputs": [
        {
          "internalType": "uint256",
          "name": "",
          "type": "uint256"
        }
      ],
      "payable": false,
      "stateMutability": "view",
      "type": "function"
    },
    {
      "constant": true,
      "inputs": [],
      "name": "getVersion",
      "outputs": [
        {
          "internalType": "uint256",
          "name": "",
          "type": "uint256"
        }
      ],
      "payable": false,
      "stateMutability": "pure",
      "type": "function"
    },
    {
      "constant": false,
      "inputs": [
        {
          "internalType": "address",
          "name": "_fnxColPool",
          "type": "address"
        },
        {
          "internalType": "address",
          "name": "_usdcColPool",
          "type": "address"
        },
        {
          "internalType": "address",
          "name": "_fnxToken",
          "type": "address"
        },
        {
          "internalType": "address",
          "name": "_usdcToken",
          "type": "address"
        },
        {
          "internalType": "address",
          "name": "_usdtToken",
          "type": "address"
        },
        {
          "internalType": "address",
          "name": "_cfnxToken",
          "type": "address"
        },
        {
          "internalType": "address",
          "name": "_fnxOracle",
          "type": "address"
        },
        {
          "internalType": "address",
          "name": "_fixedMinePool",
          "type": "address"
        }
      ],
      "name": "resetTokenAddress",
      "outputs": [],
      "payable": false,
      "stateMutability": "nonpayable",
      "type": "function"
    }
  ],
  "bytecode": "0x60806040819052600080546001600160a01b031990811673fdf252995da6d6c54c03fc993e7aa6b593a57b8d17825560018054821673120f18f5b8edcaa3c083f9464c57c11d81a9e54917905560028054821673ef9cd7882c067686691b6ff49e650b43afbbcc6b17905560038054821673a0b86991c6218b36c1d19d4a2e9eb0ce3606eb4817905560048054821673dac17f958d2ee523a2206206994597c13d831ec7179055600580548216739d7beb4265817a4923fad9ca9ef8af138499615d1790556006805482167343bd92bf3bb25ebb3bdc2524cbd6156e3fdd41f317905560078054821673f1ff936b72499382983a8fba9985c41cb80be17d17905560088054821690556009805482169055600a805482169055600b80549091163317908190556001600160a01b0316917f8be0079c531659141344cd1fd0a4f28419497f9722a3daafe3b4186f6b6457e0908290a3610e0b806101636000396000f3fe608060405234801561001057600080fd5b506004361061014d5760003560e01c80636390dff0116100c35780638ce4ab641161007c5780638ce4ab64146103095780638da5cb5b146103115780638f32d59b14610319578063a98ad46c14610335578063f2fde38b1461033d578063f9c488b7146101e05761014d565b80636390dff01461024457806363de07531461026a578063649c4905146102cb578063715018a6146102f15780638062bf5c146102f9578063877ce04e146103015761014d565b806326d023f31161011557806326d023f3146101d857806331ae3d35146101e057806345798f38146102065780634d6bb53b1461020e57806358b9df0c146102165780635f1067ba1461023c5761014d565b80630bea5cfe146101525780630d8e6e2c1461017657806311eac855146101905780631483490f14610198578063164ab7e6146101d0575b600080fd5b61015a610363565b604080516001600160a01b039092168252519081900360200190f35b61017e610372565b60408051918252519081900360200190f35b61015a610377565b61017e600480360360608110156101ae57600080fd5b506001600160a01b038135811691602081013582169160409091013516610386565b61015a61040d565b61015a61041c565b61017e600480360360208110156101f657600080fd5b50356001600160a01b031661042b565b61015a6104ad565b61015a6104bc565b61017e6004803603602081101561022c57600080fd5b50356001600160a01b03166104cb565b61015a610527565b61017e6004803603602081101561025a57600080fd5b50356001600160a01b0316610536565b6102c9600480360361010081101561028157600080fd5b506001600160a01b038135811691602081013582169160408201358116916060810135821691608082013581169160a081013582169160c082013581169160e0013516610587565b005b61017e600480360360208110156102e157600080fd5b50356001600160a01b031661066e565b6102c96109ea565b61015a610a8d565b61015a610a9c565b61015a610aab565b61015a610aba565b610321610ac9565b604080519115158252519081900360200190f35b61015a610ada565b6102c96004803603602081101561035357600080fd5b50356001600160a01b0316610ae9565b6007546001600160a01b031681565b600190565b6003546001600160a01b031681565b60408051636ba170b560e01b81526001600160a01b03858116600483015284811660248301529151600092841691636ba170b5916044808301926020929190829003018186803b1580156103d957600080fd5b505afa1580156103ed573d6000803e3d6000fd5b505050506040513d602081101561040357600080fd5b5051949350505050565b6009546001600160a01b031681565b6008546001600160a01b031681565b600080546040805163111f6fab60e21b81526001600160a01b0385811660048301529151919092169163447dbeac916024808301926020929190829003018186803b15801561047957600080fd5b505afa15801561048d573d6000803e3d6000fd5b505050506040513d60208110156104a357600080fd5b505190505b919050565b6001546001600160a01b031681565b6005546001600160a01b031681565b6007546005546040805163dea2b7c160e01b81526001600160a01b03858116600483015292831660248201529051600093929092169163dea2b7c191604480820192602092909190829003018186803b15801561047957600080fd5b600a546001600160a01b031681565b60055460408051632c9aab9b60e11b81526001600160a01b03848116600483015291516000939290921691635935573691602480820192602092909190829003018186803b15801561047957600080fd5b61058f610ac9565b6105e0576040805162461bcd60e51b815260206004820181905260248201527f4f776e61626c653a2063616c6c6572206973206e6f7420746865206f776e6572604482015290519081900360640190fd5b600080546001600160a01b03199081166001600160a01b039a8b1617909155600180548216988a1698909817909755600280548816968916969096179095556003805487169488169490941790935560048054861692871692909217909155600580548516918616919091179055600680548416918516919091179055600780549092169216919091179055565b60075460055460408051630f30209b60e31b81526001600160a01b038581166004830152928316602482015290516000938493169163798104d8916044808301926020929190829003018186803b1580156106c857600080fd5b505afa1580156106dc573d6000803e3d6000fd5b505050506040513d60208110156106f257600080fd5b50516007546040805163942a488f60e01b81526001600160a01b0387811660048301529151939450600093919092169163942a488f916024808301926020929190829003018186803b15801561074757600080fd5b505afa15801561075b573d6000803e3d6000fd5b505050506040513d602081101561077157600080fd5b505160075460408051636f3264dd60e11b81526001600160a01b0388811660048301529151939450600093919092169163de64c9ba916024808301926020929190829003018186803b1580156107c657600080fd5b505afa1580156107da573d6000803e3d6000fd5b505050506040513d60208110156107f057600080fd5b5051600654600254604080516341976e0960e01b81526001600160a01b039283166004820152905193945060009391909216916341976e09916024808301926020929190829003018186803b15801561084857600080fd5b505afa15801561085c573d6000803e3d6000fd5b505050506040513d602081101561087257600080fd5b50516001546040805163c5e5a3ed60e01b815290519293506000926001600160a01b039092169163c5e5a3ed91600480820192602092909190829003018186803b1580156108bf57600080fd5b505afa1580156108d3573d6000803e3d6000fd5b505050506040513d60208110156108e957600080fd5b5051600080546040805163c5e5a3ed60e01b8152905193945091926001600160a01b039091169163c5e5a3ed916004808301926020929190829003018186803b15801561093557600080fd5b505afa158015610949573d6000803e3d6000fd5b505050506040513d602081101561095f57600080fd5b505190506000610994610978868463ffffffff610b4e16565b610988888663ffffffff610b4e16565b9063ffffffff610bb016565b9050806109ab5760009750505050505050506104a8565b6109dd816109d16103e86109c58b8963ffffffff610b4e16565b9063ffffffff610b4e16565b9063ffffffff610c0a16565b9998505050505050505050565b6109f2610ac9565b610a43576040805162461bcd60e51b815260206004820181905260248201527f4f776e61626c653a2063616c6c6572206973206e6f7420746865206f776e6572604482015290519081900360640190fd5b600b546040516000916001600160a01b0316907f8be0079c531659141344cd1fd0a4f28419497f9722a3daafe3b4186f6b6457e0908390a3600b80546001600160a01b0319169055565b6002546001600160a01b031681565b6000546001600160a01b031681565b6006546001600160a01b031681565b600b546001600160a01b031690565b600b546001600160a01b0316331490565b6004546001600160a01b031681565b610af1610ac9565b610b42576040805162461bcd60e51b815260206004820181905260248201527f4f776e61626c653a2063616c6c6572206973206e6f7420746865206f776e6572604482015290519081900360640190fd5b610b4b81610c4c565b50565b600082610b5d57506000610baa565b82820282848281610b6a57fe5b0414610ba75760405162461bcd60e51b8152600401808060200182810382526021815260200180610db66021913960400191505060405180910390fd5b90505b92915050565b600082820183811015610ba7576040805162461bcd60e51b815260206004820152601b60248201527f536166654d6174683a206164646974696f6e206f766572666c6f770000000000604482015290519081900360640190fd5b6000610ba783836040518060400160405280601a81526020017f536166654d6174683a206469766973696f6e206279207a65726f000000000000815250610ced565b6001600160a01b038116610c915760405162461bcd60e51b8152600401808060200182810382526026815260200180610d906026913960400191505060405180910390fd5b600b546040516001600160a01b038084169216907f8be0079c531659141344cd1fd0a4f28419497f9722a3daafe3b4186f6b6457e090600090a3600b80546001600160a01b0319166001600160a01b0392909216919091179055565b60008183610d795760405162461bcd60e51b81526004018080602001828103825283818151815260200191508051906020019080838360005b83811015610d3e578181015183820152602001610d26565b50505050905090810190601f168015610d6b5780820380516001836020036101000a031916815260200191505b509250505060405180910390fd5b506000838581610d8557fe5b049594505050505056fe4f776e61626c653a206e6577206f776e657220697320746865207a65726f2061646472657373536166654d6174683a206d756c7469706c69636174696f6e206f766572666c6f77a265627a7a72315820b599c675443a397c97ab3cd8995bb9167c81b97741d5ff7692de4ba6457aa00d64736f6c63430005100032",
  "source": "\npragma solidity =0.5.16;\n\nimport \"./SafeMath.sol\";\nimport \"./IERC20.sol\";\nimport \"./Storage.sol\";\nimport \"./Ownable.sol\";\n\ninterface IFixedMinePool {\n     function getUserCurrentAPY(address account,address mineCoin) external view returns (uint256);\n     function getUserFPTBBalance(address account) external view returns (uint256);\n     function getUserFPTABalance(address account) external view returns (uint256);\n     function getMinerBalance(address account,address mineCoin) external view returns(uint256);\n}\n\ninterface IFnxOracle {\n     function getPrice(address asset) external view returns (uint256);\n}\n\ninterface ICollateralPool {\n     function getTokenNetworth() external view returns (uint256);\n     function getUserInputCollateral(address user,address collateral) external view returns (uint256);\n     function getUserTotalWorth(address account) external view returns (uint256);\n\n}\n\ninterface IMineConverter {\n     function lockedBalanceOf(address account) external view returns (uint256);\n}\n\ncontract FnxMineDebankView is Storage,Ownable {\n    \n    using SafeMath for uint256;\n\n    function getMinedUnclaimedBalance(address _user) public view returns (uint256) {\n        return IFixedMinePool(fixedMinePool).getMinerBalance(_user,cfnxToken);\n    }\n\n    function getConverterLockedBalance(address _user) public view returns (uint256) {\n        return IMineConverter(cfnxToken).lockedBalanceOf(_user);\n    }\n\n    \n    function getApy(address _user) public view returns (uint256) {\n            uint256 mineofyear = IFixedMinePool(fixedMinePool).getUserCurrentAPY(_user,cfnxToken);\n            \n            uint256 FTPA = IFixedMinePool(fixedMinePool).getUserFPTABalance(_user);\n            uint256 FTPB = IFixedMinePool(fixedMinePool).getUserFPTBBalance(_user);\n            uint256 fnxprice =  IFnxOracle(fnxOracle).getPrice(fnxToken);\n            uint256 fptaprice = ICollateralPool(usdcColPool).getTokenNetworth();\n            uint256 fptbprice = ICollateralPool(fnxColPool).getTokenNetworth();\n\n            uint256 denominater = (FTPA.mul(fptaprice)).add(FTPB.mul(fptbprice));\n            \n            if(denominater==0) {\n               return 0;\n            }\n            \n            return mineofyear.mul(fnxprice).mul(1000).div(denominater);\n    }\n    \n    \n    function getFnxPoolColValue(address _user) public view returns (uint256) {\n       return ICollateralPool(fnxColPool).getUserTotalWorth(_user);\n    }\n\n\n    function getUsdcPoolColValue(address _user)  public view returns (uint256) {\n        return ICollateralPool(fnxColPool).getUserTotalWorth(_user);\n    }\n    \n    /**\n     * @dev Retrieve user's locked balance. \n     * @param _user account.\n     * @param _collateral the collateal token address\n     * @param _pool the collateal pool     \n     */\n    function getUserInputCollateral(address _user,address _collateral,address _pool) public view returns (uint256){\n      return ICollateralPool(_pool).getUserInputCollateral(_user,_collateral);   \n    }\n    \n    function getVersion() public pure returns (uint256)  {\n        return 1;\n    }\n    \n\n    function resetTokenAddress( \n                                address _fnxColPool, \n                                address _usdcColPool, \n                                address _fnxToken,   \n                                address _usdcToken, \n                                address _usdtToken,\n                                address _cfnxToken,\n                                address _fnxOracle,\n                                address _fixedMinePool\n                                \n                              )  public onlyOwner {\n                                  \n        fnxColPool  = _fnxColPool;\n        usdcColPool = _usdcColPool;\n        fnxToken    = _fnxToken; \n        usdcToken   = _usdcToken;\n        usdtToken   = _usdtToken;\n        cfnxToken   = _cfnxToken;\n        fnxOracle    = _fnxOracle;\n        fixedMinePool = _fixedMinePool;\n    }\n    \n    \n}\n\n\n  ",
  "sourcePath": "/home/jqg/Desktop/FinNexusMineDebankApi/contracts/FnxMineDebankView.sol",
  "compiler": {
    "name": "solc",
    "version": "0.5.16+commit.9c3226ce.Emscripten.clang"
  },
  "schemaVersion": "3.2.1",
  "updatedAt": "2021-02-20T08:40:25.797Z",
  "devdoc": {
    "methods": {
      "getUserInputCollateral(address,address,address)": {
        "details": "Retrieve user's locked balance. ",
        "params": {
          "_collateral": "the collateal token address",
          "_pool": "the collateal pool     ",
          "_user": "account."
        }
      },
      "isOwner()": {
        "details": "Returns true if the caller is the current owner."
      },
      "owner()": {
        "details": "Returns the address of the current owner."
      },
      "renounceOwnership()": {
        "details": "Leaves the contract without owner. It will not be possible to call `onlyOwner` functions anymore. Can only be called by the current owner.     * NOTE: Renouncing ownership will leave the contract without an owner, thereby removing any functionality that is only available to the owner."
      },
      "transferOwnership(address)": {
        "details": "Transfers ownership of the contract to a new account (`newOwner`). Can only be called by the current owner."
      }
    }
  },
  "userdoc": {
    "methods": {}
  }
}